:100000000C94DE000C94FB000C94FB000C94FB00A1
:100010000C94FB000C94FB000C94FB000C94FB0074
:100020000C94FB000C94FB000C94FB000C94FB0064
:100030000C94FB000C94FB000C94FB000C94FB0054
:100040000C94FB000C94FB000C94FB000C94FB0044
:100050000C94FB00090122013D0156016E016E0165
:100060006E016E016E016E016E016E016E016E0118
:100070006E016E016E016E016E016E016E016E0108
:100080006E016E016E016E016E016E016E016E01F8
:100090006E016E01090122013D0156017B019401AF
:1000A000AD01C601DE01DE01DE01DE01DE01DE01A1
:1000B000DE01DE01DE01DE01DE01DE01DE01DE0148
:1000C000DE01DE01DE01DE01DE01DE01DE01DE0138
:1000D000DE01DE01DE01DE01DE01DE017B019401D5
:1000E000AD01C601EB01FD010F0221023302330213
:1000F0003302330233023302330233023302330258
:100100003302330233023302330233023302330247
:100110003302330233023302330233023302330237
:1001200033023302EB01FD010F02210240024202C1
:10013000440246024702470247024702470247027B
:100140004702470247024702470247024702470267
:100150004702470247024702470247024702470257
:100160004702470247024702470247024002420253
:100170004402460254026D0286029F02B702B70291
:10018000B702B702B702B702B702B702B702B702A7
:10019000B702B702B702B702B702B702B702B70297
:1001A000B702B702B702B702B702B702B702B70287
:1001B000B702B70254026D0286029F0211241FBECD
:1001C000CFE5D8E0DEBFCDBF10E0A0E6B0E0E4E3CD
:1001D000FAE002C005900D92AC3CB107D9F720E0DF
:1001E000ACECB0E001C01D92A03DB207E1F70E9467
:1001F000A9030C9418050C94000090E0FC01E15454
:10020000F109E432F10508F069C0E65DFF4F0C9496
:100210001205413059F42AB381E090E002C0880F02
:10022000991F6A95E2F7822B8ABB08952AB381E071
:1002300090E002C0880F991F6A95E2F780958223AB
:100240008ABB0895413061F427B381E090E0062E27
:1002500002C0880F991F0A94E2F7822B87BB0FC058
:1002600027B381E090E0062E02C0880F991F0A9400
:10027000E2F78095822387BB0DC0413059F424B347
:1002800081E090E002C0880F991F6A95E2F7822B07
:1002900084BB089524B381E090E002C0880F991FC9
:1002A0006A95E2F78095822384BB0895413059F422
:1002B00021B381E090E002C0880F991F6A95E2F7B0
:1002C000822B81BB089521B381E090E002C0880FAA
:1002D000991F6A95E2F78095822381BB089590E08B
:1002E000FC01E154F109E432F10508F067C0E25B7A
:1002F000FF4F0C941205413059F42BB381E090E08C
:1003000002C0880F991F6A95E2F7822B8BBB089574
:100310002BB381E090E002C0880F991F6A95E2F745
:10032000809582238BBB0895413059F428B381E036
:1003300090E002C0880F991F6A95E2F7822B88BB74
:10034000089528B381E090E002C0880F991F6A9554
:10035000E2F78095822388BB0895413059F425B394
:1003600081E090E002C0880F991F6A95E2F7822B26
:1003700085BB089525B381E090E002C0880F991FE6
:100380006A95E2F78095822385BB0895413059F440
:1003900022B381E090E002C0880F991F6A95E2F7CE
:1003A000822B82BB089522B381E090E002C0880FC7
:1003B000991F6A95E2F78095822382BB089590E0A9
:1003C000FC01E154F109E432F10508F04CC0EE58AB
:1003D000FF4F0C94120529B381E090E0062E02C075
:1003E000880F991F0A94E2F730E08223932302C01A
:1003F000959587956A95E2F7089526B381E090E098
:10040000062E02C0880F991F0A94E2F730E082237B
:10041000932302C0959587956A95E2F7089523B3D3
:1004200081E090E0062E02C0880F991F0A94E2F73F
:1004300030E08223932302C0959587956A95E2F771
:10044000089520B381E090E0062E02C0880F991F26
:100450000A94E2F730E08223932302C095958795B2
:100460006A95E2F7089580E0089590E0FC01E15478
:10047000F109E432F10558F4EA56FF4F0C941205E5
:100480006ABB089567BB089564BB089561BB089576
:1004900090E0FC01E154F109E432F10508F067C095
:1004A000E654FF4F0C941205413059F42BB381E010
:1004B00090E002C0880F991F6A95E2F7822B8BBBF0
:1004C00008952BB381E090E002C0880F991F6A95D0
:1004D000E2F7809582238BBB0895413059F428B30D
:1004E00081E090E002C0880F991F6A95E2F7822BA5
:1004F00088BB089528B381E090E002C0880F991F5F
:100500006A95E2F78095822388BB0895413059F4BB
:1005100025B381E090E002C0880F991F6A95E2F749
:10052000822B85BB089525B381E090E002C0880F3F
:10053000991F6A95E2F78095822385BB0895413023
:1005400059F422B381E090E002C0880F991F6A95A8
:10055000E2F7822B82BB089522B381E090E002C0D3
:10056000880F991F6A95E2F78095822382BB0895D0
:100570006295607F823479F018F4813431F0089507
:10058000833479F0843499F008958BB38F708BBBEA
:100590008BB3862B8BBB88B38F7088BB88B3862BBD
:1005A00088BB85B38F7085BB85B3862B85BB82B333
:1005B0008F7082BB82B3682B62BB08959FBB8EBBDA
:1005C0006DBBE29AE19AE199FECF08959FBB8EBB85
:1005D000E09A8DB3089541E061E084E40E946F01E8
:1005E0008FE99FE00197F1F700C0000040E061E073
:1005F00084E40E946F018FE99FE00197F1F700C04A
:1006000000000895CF93C82F682F62956F7084E41F
:100610000E94B80240E060E084E40E946F010E9402
:10062000EB026C2F84E40E94B8020E94EB028FEC74
:1006300097E00197F1F700C00000CF9108952FEFE8
:1006400081EE94E0215080409040E1F700C000002E
:1006500060EF84E40E94350241E060E084E40E949F
:10066000FD0041E061E084E40E94FD0082E00E9420
:1006700002038FE19EE40197F1F700C0000088E2D9
:100680000E9402038FEC97E00197F1F700C0000091
:100690008CE00E9402038FEC97E00197F1F700C015
:1006A000000081E00E9402038FE19EE40197F1F7D0
:1006B00000C0000086E00E9402038FEC97E00197E3
:1006C000F1F700C000000895CF93C82F682F6295FE
:1006D0006F7084E40E94B80241E060E084E40E940C
:1006E0006F010E94EB026C2F84E40E94B8020E940A
:1006F000EB02CF910895CF93DF93EC01888188239B
:1007000031F021960E94640389918111FBCFDF9122
:10071000CF9108959FEF980F923070F49FEF960F4E
:10072000903160F4813019F42FE7260F08C0823031
:1007300031F42FEB260F03C020E801C020E8822F00
:100740000E9402038FEC97E00197F1F700C00000D0
:100750000895DF92EF92FF920F931F93CF93DF9351
:100760000E941F030E94A30480E290E00E94E60220
:100770008F3F09F0D2C080E790E00E947B0301E246
:1007800010E00E94BC04C82F8F3FD9F30E9464037D
:100790002FEF81EE94E0215080409040E1F700C0BF
:1007A00000006AEE600F81E00E948A038AE20E94E4
:1007B0006403EFEFF0E722E0E150F0402040E1F782
:1007C00000C000006C2FC8010E94DE020F5F1F4FA7
:1007D00005321105B1F660E080E290E00E94DE0291
:1007E0009CC0F701038302830183008381E00E94A0
:1007F00002038BE790E00E947B03CCECD0E01DE08D
:100800000E94BC0488838F3FD9F30E946403FFEFEA
:1008100021EE84E0F15020408040E1F700C000006C
:10082000612F81E00E948A038AE20E9464039FEFA5
:10083000E0E7F2E09150E040F040E1F700C0000056
:100840001F5F21961131E1F681E290E00E94E602FD
:10085000F7019081891328C082E290E00E94E602AD
:10086000F7019181891320C083E290E00E94E602A3
:10087000F7019281891318C084E290E00E94E60299
:10088000F7019381891310C081E00E94020388E878
:1008900090E00E947B0361E082E00E948A0387E986
:1008A00090E00E947B0345C0F0E3DF1631F181E068
:1008B0000E94020383EA90E00E947B032FEF81EE07
:1008C00094E0215080409040E1F700C0000061E0DA
:1008D00082E00E948A0382EB90E00E947B038D2DD0
:1008E0000E946403EFEFF7E823E1E150F04020407D
:1008F000E1F700C00000DA9474CF81E00E940203A7
:1009000083EA90E00E947B0361E082E00E948A0318
:100910008FEB90E00E947B030CC00F2EF1E3DF2EE3
:10092000F02D0F2EFCECEF2EF0E0FF2EF02D0FEF50
:1009300058CF80E090E0DF91CF911F910F91FF9011
:10094000EF90DF9008956FE083E40E94350241E06C
:1009500064E083E40E94480241E065E083E40E9491
:10096000480241E066E083E40E94480241E067E01B
:1009700083E40E94480208950F931F93CF93DF935F
:10098000CDB7DEB760970FB6F894DEBF0FBECDBF10
:1009900080E1E0E6F0E0DE01119601900D928A958B
:1009A000E1F700E041E060E083E40E946F0141E094
:1009B00061E083E40E946F0141E062E083E40E9411
:1009C0006F0141E063E083E40E946F0140E0602F2B
:1009D00083E40E946F0110E064E0610F83E40E94F1
:1009E000DF0181110DC0E1E0F0E0EC0FFD1F84E0BC
:1009F000089FE00DF11D1124E10FF11D808107C05A
:100A00001F5F143049F70F5F043061F68FEF609677
:100A10000FB6F894DEBF0FBECDBFDF91CF911F910F
:100A20000F910895EE0FFF1F0590F491E02D0994AA
:040A3000F894FFCF68
:100A34003738392F3435362A3132332D41303D2B76
:100A440073657420506173733A2000636865636B47
:100A540020706173733A2000726967687420706152
:100A64007373776F72640073616665206F70656E6F
:100A740065640077726F6E672070617373776F724D
:100A840064007472696573206C6566743A2000733F
:0C0A9400616665206C6F636B6564000098
:00000001FF
